{
  "contractName": "SimpleTest",
  "abi": [
    {
      "constant": true,
      "inputs": [],
      "name": "currentInt",
      "outputs": [
        {
          "name": "",
          "type": "uint8"
        }
      ],
      "payable": false,
      "stateMutability": "view",
      "type": "function"
    },
    {
      "constant": true,
      "inputs": [],
      "name": "currentString",
      "outputs": [
        {
          "name": "",
          "type": "string"
        }
      ],
      "payable": false,
      "stateMutability": "view",
      "type": "function"
    },
    {
      "inputs": [
        {
          "name": "cs",
          "type": "string"
        },
        {
          "name": "ci",
          "type": "uint8"
        }
      ],
      "payable": false,
      "stateMutability": "nonpayable",
      "type": "constructor"
    },
    {
      "constant": false,
      "inputs": [
        {
          "name": "cs",
          "type": "string"
        },
        {
          "name": "ci",
          "type": "uint8"
        }
      ],
      "name": "setCurrentData",
      "outputs": [],
      "payable": false,
      "stateMutability": "nonpayable",
      "type": "function"
    },
    {
      "constant": true,
      "inputs": [],
      "name": "getCurrentStringData",
      "outputs": [
        {
          "name": "",
          "type": "string"
        }
      ],
      "payable": false,
      "stateMutability": "view",
      "type": "function"
    },
    {
      "constant": true,
      "inputs": [],
      "name": "getCurrentIntData",
      "outputs": [
        {
          "name": "",
          "type": "uint8"
        }
      ],
      "payable": false,
      "stateMutability": "view",
      "type": "function"
    }
  ],
  "bytecode": "0x608060405234801561001057600080fd5b5060405161060838038061060883398101806040528101908080518201929190602001805190602001909291905050508160009080519060200190610056929190610079565b5080600160006101000a81548160ff021916908360ff160217905550505061011e565b828054600181600116156101000203166002900490600052602060002090601f016020900481019282601f106100ba57805160ff19168380011785556100e8565b828001600101855582156100e8579182015b828111156100e75782518255916020019190600101906100cc565b5b5090506100f591906100f9565b5090565b61011b91905b808211156101175760008160009055506001016100ff565b5090565b90565b6104db8061012d6000396000f30060806040526004361061006d576000357c0100000000000000000000000000000000000000000000000000000000900463ffffffff16806303fc355e146100725780630875f513146101025780636416dea6146101335780636c8abe9d146101a9578063e7ae8446146101da575b600080fd5b34801561007e57600080fd5b5061008761026a565b6040518080602001828103825283818151815260200191508051906020019080838360005b838110156100c75780820151818401526020810190506100ac565b50505050905090810190601f1680156100f45780820380516001836020036101000a031916815260200191505b509250505060405180910390f35b34801561010e57600080fd5b5061011761030c565b604051808260ff1660ff16815260200191505060405180910390f35b34801561013f57600080fd5b506101a7600480360381019080803590602001908201803590602001908080601f0160208091040260200160405190810160405280939291908181526020018383808284378201915050505050509192919290803560ff16906020019092919050505061031f565b005b3480156101b557600080fd5b506101be610355565b604051808260ff1660ff16815260200191505060405180910390f35b3480156101e657600080fd5b506101ef61036c565b6040518080602001828103825283818151815260200191508051906020019080838360005b8381101561022f578082015181840152602081019050610214565b50505050905090810190601f16801561025c5780820380516001836020036101000a031916815260200191505b509250505060405180910390f35b606060008054600181600116156101000203166002900480601f0160208091040260200160405190810160405280929190818152602001828054600181600116156101000203166002900480156103025780601f106102d757610100808354040283529160200191610302565b820191906000526020600020905b8154815290600101906020018083116102e557829003601f168201915b5050505050905090565b600160009054906101000a900460ff1681565b816000908051906020019061033592919061040a565b5080600160006101000a81548160ff021916908360ff1602179055505050565b6000600160009054906101000a900460ff16905090565b60008054600181600116156101000203166002900480601f0160208091040260200160405190810160405280929190818152602001828054600181600116156101000203166002900480156104025780601f106103d757610100808354040283529160200191610402565b820191906000526020600020905b8154815290600101906020018083116103e557829003601f168201915b505050505081565b828054600181600116156101000203166002900490600052602060002090601f016020900481019282601f1061044b57805160ff1916838001178555610479565b82800160010185558215610479579182015b8281111561047857825182559160200191906001019061045d565b5b509050610486919061048a565b5090565b6104ac91905b808211156104a8576000816000905550600101610490565b5090565b905600a165627a7a72305820835f06d5e0f18110cea3a2f80df41b406a47a3beae4a49238feaef6d76e980e60029",
  "source": "pragma solidity ^0.4.18;\n\ncontract SimpleTest {\n    \n  string public currentString;\n  uint8 public currentInt;\n\n  constructor(string cs, uint8 ci) public {\n    currentString = cs;\n    currentInt = ci;\n  }\n  \n\n  function setCurrentData(string cs, uint8 ci) public {\n    currentString = cs;\n    currentInt = ci;\n  }\n\n\n  function getCurrentStringData() view public returns (string)\n  {\n     return currentString;\n  }\n  \n  \n  function getCurrentIntData() view public returns (uint8)\n  {\n     return currentInt;\n  }\n  \n\n}\n",
  "sourcePath": "F:\\Temp\\eth-contracts\\contracts\\SimpleTest.sol",
  "compiler": {
    "name": "solc",
    "version": "0.4.24+commit.e67f0147.Emscripten.clang"
  },
  "schemaVersion": "2.0.1",
  "updatedAt": "2018-08-16T14:41:43.406Z"
}